{
  "_format": "hh-sol-artifact-1",
  "contractName": "NFTMarketplace",
  "sourceName": "contracts/Nft.sol",
  "abi": [
    {
      "inputs": [],
      "stateMutability": "nonpayable",
      "type": "constructor"
    },
    {
      "anonymous": false,
      "inputs": [
        {
          "indexed": true,
          "internalType": "address",
          "name": "owner",
          "type": "address"
        },
        {
          "indexed": true,
          "internalType": "address",
          "name": "approved",
          "type": "address"
        },
        {
          "indexed": true,
          "internalType": "uint256",
          "name": "tokenId",
          "type": "uint256"
        }
      ],
      "name": "Approval",
      "type": "event"
    },
    {
      "anonymous": false,
      "inputs": [
        {
          "indexed": true,
          "internalType": "address",
          "name": "owner",
          "type": "address"
        },
        {
          "indexed": true,
          "internalType": "address",
          "name": "operator",
          "type": "address"
        },
        {
          "indexed": false,
          "internalType": "bool",
          "name": "approved",
          "type": "bool"
        }
      ],
      "name": "ApprovalForAll",
      "type": "event"
    },
    {
      "anonymous": false,
      "inputs": [
        {
          "indexed": false,
          "internalType": "uint256",
          "name": "_fromTokenId",
          "type": "uint256"
        },
        {
          "indexed": false,
          "internalType": "uint256",
          "name": "_toTokenId",
          "type": "uint256"
        }
      ],
      "name": "BatchMetadataUpdate",
      "type": "event"
    },
    {
      "anonymous": false,
      "inputs": [
        {
          "indexed": true,
          "internalType": "uint256",
          "name": "tokenId",
          "type": "uint256"
        },
        {
          "indexed": false,
          "internalType": "address",
          "name": "seller",
          "type": "address"
        },
        {
          "indexed": false,
          "internalType": "address",
          "name": "owner",
          "type": "address"
        },
        {
          "indexed": false,
          "internalType": "uint256",
          "name": "price",
          "type": "uint256"
        },
        {
          "indexed": false,
          "internalType": "bool",
          "name": "sold",
          "type": "bool"
        }
      ],
      "name": "MarketItemCreated",
      "type": "event"
    },
    {
      "anonymous": false,
      "inputs": [
        {
          "indexed": false,
          "internalType": "uint256",
          "name": "_tokenId",
          "type": "uint256"
        }
      ],
      "name": "MetadataUpdate",
      "type": "event"
    },
    {
      "anonymous": false,
      "inputs": [
        {
          "indexed": true,
          "internalType": "address",
          "name": "from",
          "type": "address"
        },
        {
          "indexed": true,
          "internalType": "address",
          "name": "to",
          "type": "address"
        },
        {
          "indexed": true,
          "internalType": "uint256",
          "name": "tokenId",
          "type": "uint256"
        }
      ],
      "name": "Transfer",
      "type": "event"
    },
    {
      "inputs": [
        {
          "internalType": "address",
          "name": "to",
          "type": "address"
        },
        {
          "internalType": "uint256",
          "name": "tokenId",
          "type": "uint256"
        }
      ],
      "name": "approve",
      "outputs": [],
      "stateMutability": "nonpayable",
      "type": "function"
    },
    {
      "inputs": [
        {
          "internalType": "address",
          "name": "owner",
          "type": "address"
        }
      ],
      "name": "balanceOf",
      "outputs": [
        {
          "internalType": "uint256",
          "name": "",
          "type": "uint256"
        }
      ],
      "stateMutability": "view",
      "type": "function"
    },
    {
      "inputs": [
        {
          "internalType": "uint256",
          "name": "tokenId",
          "type": "uint256"
        }
      ],
      "name": "createMarketSale",
      "outputs": [],
      "stateMutability": "payable",
      "type": "function"
    },
    {
      "inputs": [
        {
          "internalType": "string",
          "name": "tokenURI",
          "type": "string"
        },
        {
          "internalType": "uint256",
          "name": "price",
          "type": "uint256"
        }
      ],
      "name": "createToken",
      "outputs": [
        {
          "internalType": "uint256",
          "name": "",
          "type": "uint256"
        }
      ],
      "stateMutability": "payable",
      "type": "function"
    },
    {
      "inputs": [],
      "name": "fetchMarketItems",
      "outputs": [
        {
          "components": [
            {
              "internalType": "uint256",
              "name": "tokenId",
              "type": "uint256"
            },
            {
              "internalType": "address payable",
              "name": "seller",
              "type": "address"
            },
            {
              "internalType": "address payable",
              "name": "owner",
              "type": "address"
            },
            {
              "internalType": "uint256",
              "name": "price",
              "type": "uint256"
            },
            {
              "internalType": "bool",
              "name": "sold",
              "type": "bool"
            }
          ],
          "internalType": "struct NFTMarketplace.MarketItem[]",
          "name": "",
          "type": "tuple[]"
        }
      ],
      "stateMutability": "view",
      "type": "function"
    },
    {
      "inputs": [],
      "name": "fetchMyNFTs",
      "outputs": [
        {
          "components": [
            {
              "internalType": "uint256",
              "name": "tokenId",
              "type": "uint256"
            },
            {
              "internalType": "address payable",
              "name": "seller",
              "type": "address"
            },
            {
              "internalType": "address payable",
              "name": "owner",
              "type": "address"
            },
            {
              "internalType": "uint256",
              "name": "price",
              "type": "uint256"
            },
            {
              "internalType": "bool",
              "name": "sold",
              "type": "bool"
            }
          ],
          "internalType": "struct NFTMarketplace.MarketItem[]",
          "name": "",
          "type": "tuple[]"
        }
      ],
      "stateMutability": "view",
      "type": "function"
    },
    {
      "inputs": [],
      "name": "getAllNFTs",
      "outputs": [
        {
          "components": [
            {
              "internalType": "uint256",
              "name": "tokenId",
              "type": "uint256"
            },
            {
              "internalType": "address payable",
              "name": "seller",
              "type": "address"
            },
            {
              "internalType": "address payable",
              "name": "owner",
              "type": "address"
            },
            {
              "internalType": "uint256",
              "name": "price",
              "type": "uint256"
            },
            {
              "internalType": "bool",
              "name": "sold",
              "type": "bool"
            }
          ],
          "internalType": "struct NFTMarketplace.MarketItem[]",
          "name": "",
          "type": "tuple[]"
        }
      ],
      "stateMutability": "view",
      "type": "function"
    },
    {
      "inputs": [
        {
          "internalType": "uint256",
          "name": "tokenId",
          "type": "uint256"
        }
      ],
      "name": "getApproved",
      "outputs": [
        {
          "internalType": "address",
          "name": "",
          "type": "address"
        }
      ],
      "stateMutability": "view",
      "type": "function"
    },
    {
      "inputs": [],
      "name": "getListingPrice",
      "outputs": [
        {
          "internalType": "uint256",
          "name": "",
          "type": "uint256"
        }
      ],
      "stateMutability": "view",
      "type": "function"
    },
    {
      "inputs": [
        {
          "internalType": "address",
          "name": "owner",
          "type": "address"
        },
        {
          "internalType": "address",
          "name": "operator",
          "type": "address"
        }
      ],
      "name": "isApprovedForAll",
      "outputs": [
        {
          "internalType": "bool",
          "name": "",
          "type": "bool"
        }
      ],
      "stateMutability": "view",
      "type": "function"
    },
    {
      "inputs": [],
      "name": "name",
      "outputs": [
        {
          "internalType": "string",
          "name": "",
          "type": "string"
        }
      ],
      "stateMutability": "view",
      "type": "function"
    },
    {
      "inputs": [
        {
          "internalType": "uint256",
          "name": "tokenId",
          "type": "uint256"
        }
      ],
      "name": "ownerOf",
      "outputs": [
        {
          "internalType": "address",
          "name": "",
          "type": "address"
        }
      ],
      "stateMutability": "view",
      "type": "function"
    },
    {
      "inputs": [
        {
          "internalType": "uint256",
          "name": "tokenId",
          "type": "uint256"
        },
        {
          "internalType": "uint256",
          "name": "price",
          "type": "uint256"
        }
      ],
      "name": "resellToken",
      "outputs": [],
      "stateMutability": "payable",
      "type": "function"
    },
    {
      "inputs": [
        {
          "internalType": "address",
          "name": "from",
          "type": "address"
        },
        {
          "internalType": "address",
          "name": "to",
          "type": "address"
        },
        {
          "internalType": "uint256",
          "name": "tokenId",
          "type": "uint256"
        }
      ],
      "name": "safeTransferFrom",
      "outputs": [],
      "stateMutability": "nonpayable",
      "type": "function"
    },
    {
      "inputs": [
        {
          "internalType": "address",
          "name": "from",
          "type": "address"
        },
        {
          "internalType": "address",
          "name": "to",
          "type": "address"
        },
        {
          "internalType": "uint256",
          "name": "tokenId",
          "type": "uint256"
        },
        {
          "internalType": "bytes",
          "name": "data",
          "type": "bytes"
        }
      ],
      "name": "safeTransferFrom",
      "outputs": [],
      "stateMutability": "nonpayable",
      "type": "function"
    },
    {
      "inputs": [
        {
          "internalType": "address",
          "name": "operator",
          "type": "address"
        },
        {
          "internalType": "bool",
          "name": "approved",
          "type": "bool"
        }
      ],
      "name": "setApprovalForAll",
      "outputs": [],
      "stateMutability": "nonpayable",
      "type": "function"
    },
    {
      "inputs": [
        {
          "internalType": "bytes4",
          "name": "interfaceId",
          "type": "bytes4"
        }
      ],
      "name": "supportsInterface",
      "outputs": [
        {
          "internalType": "bool",
          "name": "",
          "type": "bool"
        }
      ],
      "stateMutability": "view",
      "type": "function"
    },
    {
      "inputs": [],
      "name": "symbol",
      "outputs": [
        {
          "internalType": "string",
          "name": "",
          "type": "string"
        }
      ],
      "stateMutability": "view",
      "type": "function"
    },
    {
      "inputs": [
        {
          "internalType": "uint256",
          "name": "tokenId",
          "type": "uint256"
        }
      ],
      "name": "tokenURI",
      "outputs": [
        {
          "internalType": "string",
          "name": "",
          "type": "string"
        }
      ],
      "stateMutability": "view",
      "type": "function"
    },
    {
      "inputs": [
        {
          "internalType": "address",
          "name": "from",
          "type": "address"
        },
        {
          "internalType": "address",
          "name": "to",
          "type": "address"
        },
        {
          "internalType": "uint256",
          "name": "tokenId",
          "type": "uint256"
        }
      ],
      "name": "transferFrom",
      "outputs": [],
      "stateMutability": "nonpayable",
      "type": "function"
    },
    {
      "inputs": [
        {
          "internalType": "uint256",
          "name": "_listingPrice",
          "type": "uint256"
        }
      ],
      "name": "updateListingPrice",
      "outputs": [],
      "stateMutability": "payable",
      "type": "function"
    }
  ],
  "bytecode": "0x60806040526305f5e1006009553480156200001957600080fd5b506040518060400160405280601081526020017f4d657461766572736520546f6b656e73000000000000000000000000000000008152506040518060400160405280600481526020017f4d4554540000000000000000000000000000000000000000000000000000000081525081600090805190602001906200009e92919062000101565b508060019080519060200190620000b792919062000101565b50505033600a60006101000a81548173ffffffffffffffffffffffffffffffffffffffff021916908373ffffffffffffffffffffffffffffffffffffffff16021790555062000216565b8280546200010f90620001e0565b90600052602060002090601f0160209004810192826200013357600085556200017f565b82601f106200014e57805160ff19168380011785556200017f565b828001600101855582156200017f579182015b828111156200017e57825182559160200191906001019062000161565b5b5090506200018e919062000192565b5090565b5b80821115620001ad57600081600090555060010162000193565b5090565b7f4e487b7100000000000000000000000000000000000000000000000000000000600052602260045260246000fd5b60006002820490506001821680620001f957607f821691505b6020821081141562000210576200020f620001b1565b5b50919050565b61415080620002266000396000f3fe60806040526004361061012a5760003560e01c806370a08231116100ab578063b88d4fde1161006f578063b88d4fde146103ea578063be9af53614610413578063c87b56dd1461042f578063e0391b091461046c578063e219fc7514610497578063e985e9c5146104b35761012a565b806370a082311461030d57806372b3b6201461034a57806395d89b411461037a578063a22cb465146103a5578063ae677aa3146103ce5761012a565b806312e85585116100f257806312e8558514610228578063202e37401461025357806323b872dd1461027e57806342842e0e146102a75780636352211e146102d05761012a565b806301ffc9a71461012f57806306fdde031461016c578063081812fc14610197578063095ea7b3146101d45780630f08efe0146101fd575b600080fd5b34801561013b57600080fd5b5061015660048036038101906101519190612bd3565b6104f0565b6040516101639190612c1b565b60405180910390f35b34801561017857600080fd5b50610181610551565b60405161018e9190612ccf565b60405180910390f35b3480156101a357600080fd5b506101be60048036038101906101b99190612d27565b6105e3565b6040516101cb9190612d95565b60405180910390f35b3480156101e057600080fd5b506101fb60048036038101906101f69190612ddc565b610629565b005b34801561020957600080fd5b50610212610741565b60405161021f9190612f72565b60405180910390f35b34801561023457600080fd5b5061023d6109aa565b60405161024a9190612fa3565b60405180910390f35b34801561025f57600080fd5b506102686109b4565b6040516102759190612f72565b60405180910390f35b34801561028a57600080fd5b506102a560048036038101906102a09190612fbe565b610ca2565b005b3480156102b357600080fd5b506102ce60048036038101906102c99190612fbe565b610d02565b005b3480156102dc57600080fd5b506102f760048036038101906102f29190612d27565b610d22565b6040516103049190612d95565b60405180910390f35b34801561031957600080fd5b50610334600480360381019061032f9190613011565b610da9565b6040516103419190612fa3565b60405180910390f35b610364600480360381019061035f9190613173565b610e61565b6040516103719190612fa3565b60405180910390f35b34801561038657600080fd5b5061038f610ea3565b60405161039c9190612ccf565b60405180910390f35b3480156103b157600080fd5b506103cc60048036038101906103c791906131fb565b610f35565b005b6103e860048036038101906103e39190612d27565b610f4b565b005b3480156103f657600080fd5b50610411600480360381019061040c91906132dc565b611075565b005b61042d60048036038101906104289190612d27565b6110d7565b005b34801561043b57600080fd5b5061045660048036038101906104519190612d27565b61130f565b6040516104639190612ccf565b60405180910390f35b34801561047857600080fd5b50610481611422565b60405161048e9190612f72565b60405180910390f35b6104b160048036038101906104ac919061335f565b6115f4565b005b3480156104bf57600080fd5b506104da60048036038101906104d5919061339f565b6117e9565b6040516104e79190612c1b565b60405180910390f35b6000634906490660e01b7bffffffffffffffffffffffffffffffffffffffffffffffffffffffff1916827bffffffffffffffffffffffffffffffffffffffffffffffffffffffff1916148061054a57506105498261187d565b5b9050919050565b6060600080546105609061340e565b80601f016020809104026020016040519081016040528092919081815260200182805461058c9061340e565b80156105d95780601f106105ae576101008083540402835291602001916105d9565b820191906000526020600020905b8154815290600101906020018083116105bc57829003601f168201915b5050505050905090565b60006105ee8261195f565b6004600083815260200190815260200160002060009054906101000a900473ffffffffffffffffffffffffffffffffffffffff169050919050565b600061063482610d22565b90508073ffffffffffffffffffffffffffffffffffffffff168373ffffffffffffffffffffffffffffffffffffffff1614156106a5576040517f08c379a000000000000000000000000000000000000000000000000000000000815260040161069c906134b2565b60405180910390fd5b8073ffffffffffffffffffffffffffffffffffffffff166106c46119aa565b73ffffffffffffffffffffffffffffffffffffffff1614806106f357506106f2816106ed6119aa565b6117e9565b5b610732576040517f08c379a000000000000000000000000000000000000000000000000000000000815260040161072990613544565b60405180910390fd5b61073c83836119b2565b505050565b6060600061074f6007611a6b565b9050600061075d6008611a6b565b6107676007611a6b565b6107719190613593565b90506000808267ffffffffffffffff8111156107905761078f613048565b5b6040519080825280602002602001820160405280156107c957816020015b6107b6612a67565b8152602001906001900390816107ae5790505b50905060005b8481101561099f573073ffffffffffffffffffffffffffffffffffffffff16600b60006001846107ff91906135c7565b815260200190815260200160002060020160009054906101000a900473ffffffffffffffffffffffffffffffffffffffff1673ffffffffffffffffffffffffffffffffffffffff16141561098c57600060018261085c91906135c7565b90506000600b60008381526020019081526020016000209050806040518060a0016040529081600082015481526020016001820160009054906101000a900473ffffffffffffffffffffffffffffffffffffffff1673ffffffffffffffffffffffffffffffffffffffff1673ffffffffffffffffffffffffffffffffffffffff1681526020016002820160009054906101000a900473ffffffffffffffffffffffffffffffffffffffff1673ffffffffffffffffffffffffffffffffffffffff1673ffffffffffffffffffffffffffffffffffffffff168152602001600382015481526020016004820160009054906101000a900460ff16151515158152505084868151811061096f5761096e61361d565b5b602002602001018190525060018561098791906135c7565b945050505b80806109979061364c565b9150506107cf565b508094505050505090565b6000600954905090565b606060006109c26007611a6b565b905060008060005b83811015610a6b573373ffffffffffffffffffffffffffffffffffffffff16600b60006001846109fa91906135c7565b815260200190815260200160002060020160009054906101000a900473ffffffffffffffffffffffffffffffffffffffff1673ffffffffffffffffffffffffffffffffffffffff161415610a5857600183610a5591906135c7565b92505b8080610a639061364c565b9150506109ca565b5060008267ffffffffffffffff811115610a8857610a87613048565b5b604051908082528060200260200182016040528015610ac157816020015b610aae612a67565b815260200190600190039081610aa65790505b50905060005b84811015610c97573373ffffffffffffffffffffffffffffffffffffffff16600b6000600184610af791906135c7565b815260200190815260200160002060020160009054906101000a900473ffffffffffffffffffffffffffffffffffffffff1673ffffffffffffffffffffffffffffffffffffffff161415610c84576000600182610b5491906135c7565b90506000600b60008381526020019081526020016000209050806040518060a0016040529081600082015481526020016001820160009054906101000a900473ffffffffffffffffffffffffffffffffffffffff1673ffffffffffffffffffffffffffffffffffffffff1673ffffffffffffffffffffffffffffffffffffffff1681526020016002820160009054906101000a900473ffffffffffffffffffffffffffffffffffffffff1673ffffffffffffffffffffffffffffffffffffffff1673ffffffffffffffffffffffffffffffffffffffff168152602001600382015481526020016004820160009054906101000a900460ff161515151581525050848681518110610c6757610c6661361d565b5b6020026020010181905250600185610c7f91906135c7565b945050505b8080610c8f9061364c565b915050610ac7565b508094505050505090565b610cb3610cad6119aa565b82611a79565b610cf2576040517f08c379a0000000000000000000000000000000000000000000000000000000008152600401610ce990613707565b60405180910390fd5b610cfd838383611b0e565b505050565b610d1d83838360405180602001604052806000815250611075565b505050565b600080610d2e83611e08565b9050600073ffffffffffffffffffffffffffffffffffffffff168173ffffffffffffffffffffffffffffffffffffffff161415610da0576040517f08c379a0000000000000000000000000000000000000000000000000000000008152600401610d9790613773565b60405180910390fd5b80915050919050565b60008073ffffffffffffffffffffffffffffffffffffffff168273ffffffffffffffffffffffffffffffffffffffff161415610e1a576040517f08c379a0000000000000000000000000000000000000000000000000000000008152600401610e1190613805565b60405180910390fd5b600360008373ffffffffffffffffffffffffffffffffffffffff1673ffffffffffffffffffffffffffffffffffffffff168152602001908152602001600020549050919050565b6000610e6d6007611e45565b6000610e796007611a6b565b9050610e853382611e5b565b610e8f8185612079565b610e998184612124565b8091505092915050565b606060018054610eb29061340e565b80601f0160208091040260200160405190810160405280929190818152602001828054610ede9061340e565b8015610f2b5780601f10610f0057610100808354040283529160200191610f2b565b820191906000526020600020905b815481529060010190602001808311610f0e57829003601f168201915b5050505050905090565b610f47610f406119aa565b8383612327565b5050565b600a60009054906101000a900473ffffffffffffffffffffffffffffffffffffffff1673ffffffffffffffffffffffffffffffffffffffff163373ffffffffffffffffffffffffffffffffffffffff1614610fdb576040517f08c379a0000000000000000000000000000000000000000000000000000000008152600401610fd290613897565b60405180910390fd5b3373ffffffffffffffffffffffffffffffffffffffff16600a60009054906101000a900473ffffffffffffffffffffffffffffffffffffffff1673ffffffffffffffffffffffffffffffffffffffff161461106b576040517f08c379a000000000000000000000000000000000000000000000000000000000815260040161106290613929565b60405180910390fd5b8060098190555050565b6110866110806119aa565b83611a79565b6110c5576040517f08c379a00000000000000000000000000000000000000000000000000000000081526004016110bc90613707565b60405180910390fd5b6110d184848484612494565b50505050565b6000600b6000838152602001908152602001600020600301549050803414611134576040517f08c379a000000000000000000000000000000000000000000000000000000000815260040161112b906139bb565b60405180910390fd5b33600b600084815260200190815260200160002060020160006101000a81548173ffffffffffffffffffffffffffffffffffffffff021916908373ffffffffffffffffffffffffffffffffffffffff1602179055506001600b600084815260200190815260200160002060040160006101000a81548160ff0219169083151502179055506000600b600084815260200190815260200160002060010160006101000a81548173ffffffffffffffffffffffffffffffffffffffff021916908373ffffffffffffffffffffffffffffffffffffffff1602179055506112186008611e45565b611223303384611b0e565b600a60009054906101000a900473ffffffffffffffffffffffffffffffffffffffff1673ffffffffffffffffffffffffffffffffffffffff166108fc6009549081150290604051600060405180830381858888f1935050505015801561128d573d6000803e3d6000fd5b50600b600083815260200190815260200160002060010160009054906101000a900473ffffffffffffffffffffffffffffffffffffffff1673ffffffffffffffffffffffffffffffffffffffff166108fc349081150290604051600060405180830381858888f1935050505015801561130a573d6000803e3d6000fd5b505050565b606061131a8261195f565b600060066000848152602001908152602001600020805461133a9061340e565b80601f01602080910402602001604051908101604052809291908181526020018280546113669061340e565b80156113b35780601f10611388576101008083540402835291602001916113b3565b820191906000526020600020905b81548152906001019060200180831161139657829003601f168201915b5050505050905060006113c46124f0565b90506000815114156113da57819250505061141d565b60008251111561140f5780826040516020016113f7929190613a17565b6040516020818303038152906040529250505061141d565b61141884612507565b925050505b919050565b606060006114306007611a6b565b905060008167ffffffffffffffff81111561144e5761144d613048565b5b60405190808252806020026020018201604052801561148757816020015b611474612a67565b81526020019060019003908161146c5790505b50905060008080600090505b848110156115e9576001816114a891906135c7565b91506000600b60008481526020019081526020016000209050806040518060a0016040529081600082015481526020016001820160009054906101000a900473ffffffffffffffffffffffffffffffffffffffff1673ffffffffffffffffffffffffffffffffffffffff1673ffffffffffffffffffffffffffffffffffffffff1681526020016002820160009054906101000a900473ffffffffffffffffffffffffffffffffffffffff1673ffffffffffffffffffffffffffffffffffffffff1673ffffffffffffffffffffffffffffffffffffffff168152602001600382015481526020016004820160009054906101000a900460ff1615151515815250508585815181106115bb576115ba61361d565b5b60200260200101819052506001846115d391906135c7565b93505080806115e19061364c565b915050611493565b508294505050505090565b3373ffffffffffffffffffffffffffffffffffffffff16600b600084815260200190815260200160002060020160009054906101000a900473ffffffffffffffffffffffffffffffffffffffff1673ffffffffffffffffffffffffffffffffffffffff1614611698576040517f08c379a000000000000000000000000000000000000000000000000000000000815260040161168f90613aad565b60405180910390fd5b60095434146116dc576040517f08c379a00000000000000000000000000000000000000000000000000000000081526004016116d390613b3f565b60405180910390fd5b6000600b600084815260200190815260200160002060040160006101000a81548160ff02191690831515021790555080600b60008481526020019081526020016000206003018190555033600b600084815260200190815260200160002060010160006101000a81548173ffffffffffffffffffffffffffffffffffffffff021916908373ffffffffffffffffffffffffffffffffffffffff16021790555030600b600084815260200190815260200160002060020160006101000a81548173ffffffffffffffffffffffffffffffffffffffff021916908373ffffffffffffffffffffffffffffffffffffffff1602179055506117da600861256f565b6117e5333084611b0e565b5050565b6000600560008473ffffffffffffffffffffffffffffffffffffffff1673ffffffffffffffffffffffffffffffffffffffff16815260200190815260200160002060008373ffffffffffffffffffffffffffffffffffffffff1673ffffffffffffffffffffffffffffffffffffffff16815260200190815260200160002060009054906101000a900460ff16905092915050565b60007f80ac58cd000000000000000000000000000000000000000000000000000000007bffffffffffffffffffffffffffffffffffffffffffffffffffffffff1916827bffffffffffffffffffffffffffffffffffffffffffffffffffffffff1916148061194857507f5b5e139f000000000000000000000000000000000000000000000000000000007bffffffffffffffffffffffffffffffffffffffffffffffffffffffff1916827bffffffffffffffffffffffffffffffffffffffffffffffffffffffff1916145b806119585750611957826125cb565b5b9050919050565b61196881612635565b6119a7576040517f08c379a000000000000000000000000000000000000000000000000000000000815260040161199e90613773565b60405180910390fd5b50565b600033905090565b816004600083815260200190815260200160002060006101000a81548173ffffffffffffffffffffffffffffffffffffffff021916908373ffffffffffffffffffffffffffffffffffffffff160217905550808273ffffffffffffffffffffffffffffffffffffffff16611a2583610d22565b73ffffffffffffffffffffffffffffffffffffffff167f8c5be1e5ebec7d5bd14f71427d1e84f3dd0314c0f7b2291e5b200ac8c7c3b92560405160405180910390a45050565b600081600001549050919050565b600080611a8583610d22565b90508073ffffffffffffffffffffffffffffffffffffffff168473ffffffffffffffffffffffffffffffffffffffff161480611ac75750611ac681856117e9565b5b80611b0557508373ffffffffffffffffffffffffffffffffffffffff16611aed846105e3565b73ffffffffffffffffffffffffffffffffffffffff16145b91505092915050565b8273ffffffffffffffffffffffffffffffffffffffff16611b2e82610d22565b73ffffffffffffffffffffffffffffffffffffffff1614611b84576040517f08c379a0000000000000000000000000000000000000000000000000000000008152600401611b7b90613bd1565b60405180910390fd5b600073ffffffffffffffffffffffffffffffffffffffff168273ffffffffffffffffffffffffffffffffffffffff161415611bf4576040517f08c379a0000000000000000000000000000000000000000000000000000000008152600401611beb90613c63565b60405180910390fd5b611c018383836001612676565b8273ffffffffffffffffffffffffffffffffffffffff16611c2182610d22565b73ffffffffffffffffffffffffffffffffffffffff1614611c77576040517f08c379a0000000000000000000000000000000000000000000000000000000008152600401611c6e90613bd1565b60405180910390fd5b6004600082815260200190815260200160002060006101000a81549073ffffffffffffffffffffffffffffffffffffffff02191690556001600360008573ffffffffffffffffffffffffffffffffffffffff1673ffffffffffffffffffffffffffffffffffffffff168152602001908152602001600020600082825403925050819055506001600360008473ffffffffffffffffffffffffffffffffffffffff1673ffffffffffffffffffffffffffffffffffffffff16815260200190815260200160002060008282540192505081905550816002600083815260200190815260200160002060006101000a81548173ffffffffffffffffffffffffffffffffffffffff021916908373ffffffffffffffffffffffffffffffffffffffff160217905550808273ffffffffffffffffffffffffffffffffffffffff168473ffffffffffffffffffffffffffffffffffffffff167fddf252ad1be2c89b69c2b068fc378daa952ba7f163c4a11628f55a4df523b3ef60405160405180910390a4611e03838383600161267c565b505050565b60006002600083815260200190815260200160002060009054906101000a900473ffffffffffffffffffffffffffffffffffffffff169050919050565b6001816000016000828254019250508190555050565b600073ffffffffffffffffffffffffffffffffffffffff168273ffffffffffffffffffffffffffffffffffffffff161415611ecb576040517f08c379a0000000000000000000000000000000000000000000000000000000008152600401611ec290613ccf565b60405180910390fd5b611ed481612635565b15611f14576040517f08c379a0000000000000000000000000000000000000000000000000000000008152600401611f0b90613d3b565b60405180910390fd5b611f22600083836001612676565b611f2b81612635565b15611f6b576040517f08c379a0000000000000000000000000000000000000000000000000000000008152600401611f6290613d3b565b60405180910390fd5b6001600360008473ffffffffffffffffffffffffffffffffffffffff1673ffffffffffffffffffffffffffffffffffffffff16815260200190815260200160002060008282540192505081905550816002600083815260200190815260200160002060006101000a81548173ffffffffffffffffffffffffffffffffffffffff021916908373ffffffffffffffffffffffffffffffffffffffff160217905550808273ffffffffffffffffffffffffffffffffffffffff16600073ffffffffffffffffffffffffffffffffffffffff167fddf252ad1be2c89b69c2b068fc378daa952ba7f163c4a11628f55a4df523b3ef60405160405180910390a461207560008383600161267c565b5050565b61208282612635565b6120c1576040517f08c379a00000000000000000000000000000000000000000000000000000000081526004016120b890613dcd565b60405180910390fd5b806006600084815260200190815260200160002090805190602001906120e8929190612ac4565b507ff8e1a15aba9398e019f0b49df1a4fde98ee17ae345cb5f6b5e2c27f5033e8ce7826040516121189190612fa3565b60405180910390a15050565b60008111612167576040517f08c379a000000000000000000000000000000000000000000000000000000000815260040161215e90613e39565b60405180910390fd5b60095434146121ab576040517f08c379a00000000000000000000000000000000000000000000000000000000081526004016121a290613b3f565b60405180910390fd5b6040518060a001604052808381526020013373ffffffffffffffffffffffffffffffffffffffff1681526020013073ffffffffffffffffffffffffffffffffffffffff16815260200182815260200160001515815250600b60008481526020019081526020016000206000820151816000015560208201518160010160006101000a81548173ffffffffffffffffffffffffffffffffffffffff021916908373ffffffffffffffffffffffffffffffffffffffff16021790555060408201518160020160006101000a81548173ffffffffffffffffffffffffffffffffffffffff021916908373ffffffffffffffffffffffffffffffffffffffff1602179055506060820151816003015560808201518160040160006101000a81548160ff0219169083151502179055509050506122e4333084611b0e565b817fb640004f1d14576d0c209e240cad0410e0d8c0c33a09375861fbadae2588a98d333084600060405161231b9493929190613e59565b60405180910390a25050565b8173ffffffffffffffffffffffffffffffffffffffff168373ffffffffffffffffffffffffffffffffffffffff161415612396576040517f08c379a000000000000000000000000000000000000000000000000000000000815260040161238d90613eea565b60405180910390fd5b80600560008573ffffffffffffffffffffffffffffffffffffffff1673ffffffffffffffffffffffffffffffffffffffff16815260200190815260200160002060008473ffffffffffffffffffffffffffffffffffffffff1673ffffffffffffffffffffffffffffffffffffffff16815260200190815260200160002060006101000a81548160ff0219169083151502179055508173ffffffffffffffffffffffffffffffffffffffff168373ffffffffffffffffffffffffffffffffffffffff167f17307eab39ab6107e8899845ad3d59bd9653f200f220920489ca2b5937696c31836040516124879190612c1b565b60405180910390a3505050565b61249f848484611b0e565b6124ab84848484612682565b6124ea576040517f08c379a00000000000000000000000000000000000000000000000000000000081526004016124e190613f7c565b60405180910390fd5b50505050565b606060405180602001604052806000815250905090565b60606125128261195f565b600061251c6124f0565b9050600081511161253c5760405180602001604052806000815250612567565b8061254684612819565b604051602001612557929190613a17565b6040516020818303038152906040525b915050919050565b600081600001549050600081116125bb576040517f08c379a00000000000000000000000000000000000000000000000000000000081526004016125b290613fe8565b60405180910390fd5b6001810382600001819055505050565b60007f01ffc9a7000000000000000000000000000000000000000000000000000000007bffffffffffffffffffffffffffffffffffffffffffffffffffffffff1916827bffffffffffffffffffffffffffffffffffffffffffffffffffffffff1916149050919050565b60008073ffffffffffffffffffffffffffffffffffffffff1661265783611e08565b73ffffffffffffffffffffffffffffffffffffffff1614159050919050565b50505050565b50505050565b60006126a38473ffffffffffffffffffffffffffffffffffffffff166128f1565b1561280c578373ffffffffffffffffffffffffffffffffffffffff1663150b7a026126cc6119aa565b8786866040518563ffffffff1660e01b81526004016126ee949392919061405d565b602060405180830381600087803b15801561270857600080fd5b505af192505050801561273957506040513d601f19601f8201168201806040525081019061273691906140be565b60015b6127bc573d8060008114612769576040519150601f19603f3d011682016040523d82523d6000602084013e61276e565b606091505b506000815114156127b4576040517f08c379a00000000000000000000000000000000000000000000000000000000081526004016127ab90613f7c565b60405180910390fd5b805181602001fd5b63150b7a0260e01b7bffffffffffffffffffffffffffffffffffffffffffffffffffffffff1916817bffffffffffffffffffffffffffffffffffffffffffffffffffffffff191614915050612811565b600190505b949350505050565b60606000600161282884612914565b01905060008167ffffffffffffffff81111561284757612846613048565b5b6040519080825280601f01601f1916602001820160405280156128795781602001600182028036833780820191505090505b509050600082602001820190505b6001156128e6578080600190039150507f3031323334353637383961626364656600000000000000000000000000000000600a86061a8153600a85816128d0576128cf6140eb565b5b04945060008514156128e1576128e6565b612887565b819350505050919050565b6000808273ffffffffffffffffffffffffffffffffffffffff163b119050919050565b600080600090507a184f03e93ff9f4daa797ed6e38ed64bf6a1f0100000000000000008310612972577a184f03e93ff9f4daa797ed6e38ed64bf6a1f0100000000000000008381612968576129676140eb565b5b0492506040810190505b6d04ee2d6d415b85acef810000000083106129af576d04ee2d6d415b85acef810000000083816129a5576129a46140eb565b5b0492506020810190505b662386f26fc1000083106129de57662386f26fc1000083816129d4576129d36140eb565b5b0492506010810190505b6305f5e1008310612a07576305f5e10083816129fd576129fc6140eb565b5b0492506008810190505b6127108310612a2c576127108381612a2257612a216140eb565b5b0492506004810190505b60648310612a4f5760648381612a4557612a446140eb565b5b0492506002810190505b600a8310612a5e576001810190505b80915050919050565b6040518060a0016040528060008152602001600073ffffffffffffffffffffffffffffffffffffffff168152602001600073ffffffffffffffffffffffffffffffffffffffff168152602001600081526020016000151581525090565b828054612ad09061340e565b90600052602060002090601f016020900481019282612af25760008555612b39565b82601f10612b0b57805160ff1916838001178555612b39565b82800160010185558215612b39579182015b82811115612b38578251825591602001919060010190612b1d565b5b509050612b469190612b4a565b5090565b5b80821115612b63576000816000905550600101612b4b565b5090565b6000604051905090565b600080fd5b600080fd5b60007fffffffff0000000000000000000000000000000000000000000000000000000082169050919050565b612bb081612b7b565b8114612bbb57600080fd5b50565b600081359050612bcd81612ba7565b92915050565b600060208284031215612be957612be8612b71565b5b6000612bf784828501612bbe565b91505092915050565b60008115159050919050565b612c1581612c00565b82525050565b6000602082019050612c306000830184612c0c565b92915050565b600081519050919050565b600082825260208201905092915050565b60005b83811015612c70578082015181840152602081019050612c55565b83811115612c7f576000848401525b50505050565b6000601f19601f8301169050919050565b6000612ca182612c36565b612cab8185612c41565b9350612cbb818560208601612c52565b612cc481612c85565b840191505092915050565b60006020820190508181036000830152612ce98184612c96565b905092915050565b6000819050919050565b612d0481612cf1565b8114612d0f57600080fd5b50565b600081359050612d2181612cfb565b92915050565b600060208284031215612d3d57612d3c612b71565b5b6000612d4b84828501612d12565b91505092915050565b600073ffffffffffffffffffffffffffffffffffffffff82169050919050565b6000612d7f82612d54565b9050919050565b612d8f81612d74565b82525050565b6000602082019050612daa6000830184612d86565b92915050565b612db981612d74565b8114612dc457600080fd5b50565b600081359050612dd681612db0565b92915050565b60008060408385031215612df357612df2612b71565b5b6000612e0185828601612dc7565b9250506020612e1285828601612d12565b9150509250929050565b600081519050919050565b600082825260208201905092915050565b6000819050602082019050919050565b612e5181612cf1565b82525050565b6000612e6282612d54565b9050919050565b612e7281612e57565b82525050565b612e8181612c00565b82525050565b60a082016000820151612e9d6000850182612e48565b506020820151612eb06020850182612e69565b506040820151612ec36040850182612e69565b506060820151612ed66060850182612e48565b506080820151612ee96080850182612e78565b50505050565b6000612efb8383612e87565b60a08301905092915050565b6000602082019050919050565b6000612f1f82612e1c565b612f298185612e27565b9350612f3483612e38565b8060005b83811015612f65578151612f4c8882612eef565b9750612f5783612f07565b925050600181019050612f38565b5085935050505092915050565b60006020820190508181036000830152612f8c8184612f14565b905092915050565b612f9d81612cf1565b82525050565b6000602082019050612fb86000830184612f94565b92915050565b600080600060608486031215612fd757612fd6612b71565b5b6000612fe586828701612dc7565b9350506020612ff686828701612dc7565b925050604061300786828701612d12565b9150509250925092565b60006020828403121561302757613026612b71565b5b600061303584828501612dc7565b91505092915050565b600080fd5b600080fd5b7f4e487b7100000000000000000000000000000000000000000000000000000000600052604160045260246000fd5b61308082612c85565b810181811067ffffffffffffffff8211171561309f5761309e613048565b5b80604052505050565b60006130b2612b67565b90506130be8282613077565b919050565b600067ffffffffffffffff8211156130de576130dd613048565b5b6130e782612c85565b9050602081019050919050565b82818337600083830152505050565b6000613116613111846130c3565b6130a8565b90508281526020810184848401111561313257613131613043565b5b61313d8482856130f4565b509392505050565b600082601f83011261315a5761315961303e565b5b813561316a848260208601613103565b91505092915050565b6000806040838503121561318a57613189612b71565b5b600083013567ffffffffffffffff8111156131a8576131a7612b76565b5b6131b485828601613145565b92505060206131c585828601612d12565b9150509250929050565b6131d881612c00565b81146131e357600080fd5b50565b6000813590506131f5816131cf565b92915050565b6000806040838503121561321257613211612b71565b5b600061322085828601612dc7565b9250506020613231858286016131e6565b9150509250929050565b600067ffffffffffffffff82111561325657613255613048565b5b61325f82612c85565b9050602081019050919050565b600061327f61327a8461323b565b6130a8565b90508281526020810184848401111561329b5761329a613043565b5b6132a68482856130f4565b509392505050565b600082601f8301126132c3576132c261303e565b5b81356132d384826020860161326c565b91505092915050565b600080600080608085870312156132f6576132f5612b71565b5b600061330487828801612dc7565b945050602061331587828801612dc7565b935050604061332687828801612d12565b925050606085013567ffffffffffffffff81111561334757613346612b76565b5b613353878288016132ae565b91505092959194509250565b6000806040838503121561337657613375612b71565b5b600061338485828601612d12565b925050602061339585828601612d12565b9150509250929050565b600080604083850312156133b6576133b5612b71565b5b60006133c485828601612dc7565b92505060206133d585828601612dc7565b9150509250929050565b7f4e487b7100000000000000000000000000000000000000000000000000000000600052602260045260246000fd5b6000600282049050600182168061342657607f821691505b6020821081141561343a576134396133df565b5b50919050565b7f4552433732313a20617070726f76616c20746f2063757272656e74206f776e6560008201527f7200000000000000000000000000000000000000000000000000000000000000602082015250565b600061349c602183612c41565b91506134a782613440565b604082019050919050565b600060208201905081810360008301526134cb8161348f565b9050919050565b7f4552433732313a20617070726f76652063616c6c6572206973206e6f7420746f60008201527f6b656e206f776e6572206f7220617070726f76656420666f7220616c6c000000602082015250565b600061352e603d83612c41565b9150613539826134d2565b604082019050919050565b6000602082019050818103600083015261355d81613521565b9050919050565b7f4e487b7100000000000000000000000000000000000000000000000000000000600052601160045260246000fd5b600061359e82612cf1565b91506135a983612cf1565b9250828210156135bc576135bb613564565b5b828203905092915050565b60006135d282612cf1565b91506135dd83612cf1565b9250827fffffffffffffffffffffffffffffffffffffffffffffffffffffffffffffffff0382111561361257613611613564565b5b828201905092915050565b7f4e487b7100000000000000000000000000000000000000000000000000000000600052603260045260246000fd5b600061365782612cf1565b91507fffffffffffffffffffffffffffffffffffffffffffffffffffffffffffffffff82141561368a57613689613564565b5b600182019050919050565b7f4552433732313a2063616c6c6572206973206e6f7420746f6b656e206f776e6560008201527f72206f7220617070726f76656400000000000000000000000000000000000000602082015250565b60006136f1602d83612c41565b91506136fc82613695565b604082019050919050565b60006020820190508181036000830152613720816136e4565b9050919050565b7f4552433732313a20696e76616c696420746f6b656e2049440000000000000000600082015250565b600061375d601883612c41565b915061376882613727565b602082019050919050565b6000602082019050818103600083015261378c81613750565b9050919050565b7f4552433732313a2061646472657373207a65726f206973206e6f74206120766160008201527f6c6964206f776e65720000000000000000000000000000000000000000000000602082015250565b60006137ef602983612c41565b91506137fa82613793565b604082019050919050565b6000602082019050818103600083015261381e816137e2565b9050919050565b7f6f6e6c79206f776e6572206f6620746865206d61726b6574706c61636520636160008201527f6e206368616e676520746865206c697374696e67207072696365000000000000602082015250565b6000613881603a83612c41565b915061388c82613825565b604082019050919050565b600060208201905081810360008301526138b081613874565b9050919050565b7f4f6e6c79206d61726b6574706c616365206f776e65722063616e20757064617460008201527f65206c697374696e672070726963652e00000000000000000000000000000000602082015250565b6000613913603083612c41565b915061391e826138b7565b604082019050919050565b6000602082019050818103600083015261394281613906565b9050919050565b7f506c65617365207375626d6974207468652061736b696e67207072696365206960008201527f6e206f7264657220746f20636f6d706c65746520746865207075726368617365602082015250565b60006139a5604083612c41565b91506139b082613949565b604082019050919050565b600060208201905081810360008301526139d481613998565b9050919050565b600081905092915050565b60006139f182612c36565b6139fb81856139db565b9350613a0b818560208601612c52565b80840191505092915050565b6000613a2382856139e6565b9150613a2f82846139e6565b91508190509392505050565b7f4f6e6c79206974656d206f776e65722063616e20706572666f726d207468697360008201527f206f7065726174696f6e00000000000000000000000000000000000000000000602082015250565b6000613a97602a83612c41565b9150613aa282613a3b565b604082019050919050565b60006020820190508181036000830152613ac681613a8a565b9050919050565b7f5072696365206d75737420626520657175616c20746f206c697374696e67207060008201527f7269636500000000000000000000000000000000000000000000000000000000602082015250565b6000613b29602483612c41565b9150613b3482613acd565b604082019050919050565b60006020820190508181036000830152613b5881613b1c565b9050919050565b7f4552433732313a207472616e736665722066726f6d20696e636f72726563742060008201527f6f776e6572000000000000000000000000000000000000000000000000000000602082015250565b6000613bbb602583612c41565b9150613bc682613b5f565b604082019050919050565b60006020820190508181036000830152613bea81613bae565b9050919050565b7f4552433732313a207472616e7366657220746f20746865207a65726f2061646460008201527f7265737300000000000000000000000000000000000000000000000000000000602082015250565b6000613c4d602483612c41565b9150613c5882613bf1565b604082019050919050565b60006020820190508181036000830152613c7c81613c40565b9050919050565b7f4552433732313a206d696e7420746f20746865207a65726f2061646472657373600082015250565b6000613cb9602083612c41565b9150613cc482613c83565b602082019050919050565b60006020820190508181036000830152613ce881613cac565b9050919050565b7f4552433732313a20746f6b656e20616c7265616479206d696e74656400000000600082015250565b6000613d25601c83612c41565b9150613d3082613cef565b602082019050919050565b60006020820190508181036000830152613d5481613d18565b9050919050565b7f45524337323155524953746f726167653a2055524920736574206f66206e6f6e60008201527f6578697374656e7420746f6b656e000000000000000000000000000000000000602082015250565b6000613db7602e83612c41565b9150613dc282613d5b565b604082019050919050565b60006020820190508181036000830152613de681613daa565b9050919050565b7f5072696365206d757374206265206174206c6561737420312077656900000000600082015250565b6000613e23601c83612c41565b9150613e2e82613ded565b602082019050919050565b60006020820190508181036000830152613e5281613e16565b9050919050565b6000608082019050613e6e6000830187612d86565b613e7b6020830186612d86565b613e886040830185612f94565b613e956060830184612c0c565b95945050505050565b7f4552433732313a20617070726f766520746f2063616c6c657200000000000000600082015250565b6000613ed4601983612c41565b9150613edf82613e9e565b602082019050919050565b60006020820190508181036000830152613f0381613ec7565b9050919050565b7f4552433732313a207472616e7366657220746f206e6f6e20455243373231526560008201527f63656976657220696d706c656d656e7465720000000000000000000000000000602082015250565b6000613f66603283612c41565b9150613f7182613f0a565b604082019050919050565b60006020820190508181036000830152613f9581613f59565b9050919050565b7f436f756e7465723a2064656372656d656e74206f766572666c6f770000000000600082015250565b6000613fd2601b83612c41565b9150613fdd82613f9c565b602082019050919050565b6000602082019050818103600083015261400181613fc5565b9050919050565b600081519050919050565b600082825260208201905092915050565b600061402f82614008565b6140398185614013565b9350614049818560208601612c52565b61405281612c85565b840191505092915050565b60006080820190506140726000830187612d86565b61407f6020830186612d86565b61408c6040830185612f94565b818103606083015261409e8184614024565b905095945050505050565b6000815190506140b881612ba7565b92915050565b6000602082840312156140d4576140d3612b71565b5b60006140e2848285016140a9565b91505092915050565b7f4e487b7100000000000000000000000000000000000000000000000000000000600052601260045260246000fdfea2646970667358221220f3f9c27dd39319f10fe4b75026dca529957a85f6d985ee1b314adb27b02149de64736f6c63430008090033",
  "linkReferences": {},
  "deployedLinkReferences": {}
}