{
  "_format": "hh-sol-artifact-1",
  "contractName": "NFTMarketplace",
  "sourceName": "contracts/Nft.sol",
  "abi": [
    {
      "inputs": [],
      "stateMutability": "nonpayable",
      "type": "constructor"
    },
    {
      "anonymous": false,
      "inputs": [
        {
          "indexed": true,
          "internalType": "address",
          "name": "owner",
          "type": "address"
        },
        {
          "indexed": true,
          "internalType": "address",
          "name": "approved",
          "type": "address"
        },
        {
          "indexed": true,
          "internalType": "uint256",
          "name": "tokenId",
          "type": "uint256"
        }
      ],
      "name": "Approval",
      "type": "event"
    },
    {
      "anonymous": false,
      "inputs": [
        {
          "indexed": true,
          "internalType": "address",
          "name": "owner",
          "type": "address"
        },
        {
          "indexed": true,
          "internalType": "address",
          "name": "operator",
          "type": "address"
        },
        {
          "indexed": false,
          "internalType": "bool",
          "name": "approved",
          "type": "bool"
        }
      ],
      "name": "ApprovalForAll",
      "type": "event"
    },
    {
      "anonymous": false,
      "inputs": [
        {
          "indexed": false,
          "internalType": "uint256",
          "name": "_fromTokenId",
          "type": "uint256"
        },
        {
          "indexed": false,
          "internalType": "uint256",
          "name": "_toTokenId",
          "type": "uint256"
        }
      ],
      "name": "BatchMetadataUpdate",
      "type": "event"
    },
    {
      "anonymous": false,
      "inputs": [
        {
          "indexed": true,
          "internalType": "uint256",
          "name": "tokenId",
          "type": "uint256"
        },
        {
          "indexed": false,
          "internalType": "address",
          "name": "seller",
          "type": "address"
        },
        {
          "indexed": false,
          "internalType": "address",
          "name": "owner",
          "type": "address"
        },
        {
          "indexed": false,
          "internalType": "uint256",
          "name": "price",
          "type": "uint256"
        },
        {
          "indexed": false,
          "internalType": "bool",
          "name": "sold",
          "type": "bool"
        }
      ],
      "name": "MarketItemCreated",
      "type": "event"
    },
    {
      "anonymous": false,
      "inputs": [
        {
          "indexed": false,
          "internalType": "uint256",
          "name": "_tokenId",
          "type": "uint256"
        }
      ],
      "name": "MetadataUpdate",
      "type": "event"
    },
    {
      "anonymous": false,
      "inputs": [
        {
          "indexed": true,
          "internalType": "address",
          "name": "from",
          "type": "address"
        },
        {
          "indexed": true,
          "internalType": "address",
          "name": "to",
          "type": "address"
        },
        {
          "indexed": true,
          "internalType": "uint256",
          "name": "tokenId",
          "type": "uint256"
        }
      ],
      "name": "Transfer",
      "type": "event"
    },
    {
      "inputs": [
        {
          "internalType": "address",
          "name": "to",
          "type": "address"
        },
        {
          "internalType": "uint256",
          "name": "tokenId",
          "type": "uint256"
        }
      ],
      "name": "approve",
      "outputs": [],
      "stateMutability": "nonpayable",
      "type": "function"
    },
    {
      "inputs": [
        {
          "internalType": "address",
          "name": "owner",
          "type": "address"
        }
      ],
      "name": "balanceOf",
      "outputs": [
        {
          "internalType": "uint256",
          "name": "",
          "type": "uint256"
        }
      ],
      "stateMutability": "view",
      "type": "function"
    },
    {
      "inputs": [
        {
          "internalType": "uint256",
          "name": "tokenId",
          "type": "uint256"
        }
      ],
      "name": "createMarketSale",
      "outputs": [],
      "stateMutability": "payable",
      "type": "function"
    },
    {
      "inputs": [
        {
          "internalType": "string",
          "name": "tokenURI",
          "type": "string"
        },
        {
          "internalType": "uint256",
          "name": "price",
          "type": "uint256"
        }
      ],
      "name": "createToken",
      "outputs": [
        {
          "internalType": "uint256",
          "name": "",
          "type": "uint256"
        }
      ],
      "stateMutability": "payable",
      "type": "function"
    },
    {
      "inputs": [],
      "name": "fetchMarketItems",
      "outputs": [
        {
          "components": [
            {
              "internalType": "uint256",
              "name": "tokenId",
              "type": "uint256"
            },
            {
              "internalType": "address payable",
              "name": "seller",
              "type": "address"
            },
            {
              "internalType": "address payable",
              "name": "owner",
              "type": "address"
            },
            {
              "internalType": "uint256",
              "name": "price",
              "type": "uint256"
            },
            {
              "internalType": "bool",
              "name": "sold",
              "type": "bool"
            }
          ],
          "internalType": "struct NFTMarketplace.MarketItem[]",
          "name": "",
          "type": "tuple[]"
        }
      ],
      "stateMutability": "view",
      "type": "function"
    },
    {
      "inputs": [],
      "name": "fetchMyNFTs",
      "outputs": [
        {
          "components": [
            {
              "internalType": "uint256",
              "name": "tokenId",
              "type": "uint256"
            },
            {
              "internalType": "address payable",
              "name": "seller",
              "type": "address"
            },
            {
              "internalType": "address payable",
              "name": "owner",
              "type": "address"
            },
            {
              "internalType": "uint256",
              "name": "price",
              "type": "uint256"
            },
            {
              "internalType": "bool",
              "name": "sold",
              "type": "bool"
            }
          ],
          "internalType": "struct NFTMarketplace.MarketItem[]",
          "name": "",
          "type": "tuple[]"
        }
      ],
      "stateMutability": "view",
      "type": "function"
    },
    {
      "inputs": [],
      "name": "getAllNFTs",
      "outputs": [
        {
          "components": [
            {
              "internalType": "uint256",
              "name": "tokenId",
              "type": "uint256"
            },
            {
              "internalType": "address payable",
              "name": "seller",
              "type": "address"
            },
            {
              "internalType": "address payable",
              "name": "owner",
              "type": "address"
            },
            {
              "internalType": "uint256",
              "name": "price",
              "type": "uint256"
            },
            {
              "internalType": "bool",
              "name": "sold",
              "type": "bool"
            }
          ],
          "internalType": "struct NFTMarketplace.MarketItem[]",
          "name": "",
          "type": "tuple[]"
        }
      ],
      "stateMutability": "view",
      "type": "function"
    },
    {
      "inputs": [
        {
          "internalType": "uint256",
          "name": "tokenId",
          "type": "uint256"
        }
      ],
      "name": "getApproved",
      "outputs": [
        {
          "internalType": "address",
          "name": "",
          "type": "address"
        }
      ],
      "stateMutability": "view",
      "type": "function"
    },
    {
      "inputs": [],
      "name": "getListingPrice",
      "outputs": [
        {
          "internalType": "uint256",
          "name": "",
          "type": "uint256"
        }
      ],
      "stateMutability": "view",
      "type": "function"
    },
    {
      "inputs": [
        {
          "internalType": "address",
          "name": "owner",
          "type": "address"
        },
        {
          "internalType": "address",
          "name": "operator",
          "type": "address"
        }
      ],
      "name": "isApprovedForAll",
      "outputs": [
        {
          "internalType": "bool",
          "name": "",
          "type": "bool"
        }
      ],
      "stateMutability": "view",
      "type": "function"
    },
    {
      "inputs": [],
      "name": "name",
      "outputs": [
        {
          "internalType": "string",
          "name": "",
          "type": "string"
        }
      ],
      "stateMutability": "view",
      "type": "function"
    },
    {
      "inputs": [
        {
          "internalType": "uint256",
          "name": "tokenId",
          "type": "uint256"
        }
      ],
      "name": "ownerOf",
      "outputs": [
        {
          "internalType": "address",
          "name": "",
          "type": "address"
        }
      ],
      "stateMutability": "view",
      "type": "function"
    },
    {
      "inputs": [
        {
          "internalType": "uint256",
          "name": "tokenId",
          "type": "uint256"
        },
        {
          "internalType": "uint256",
          "name": "price",
          "type": "uint256"
        }
      ],
      "name": "resellToken",
      "outputs": [],
      "stateMutability": "payable",
      "type": "function"
    },
    {
      "inputs": [
        {
          "internalType": "address",
          "name": "from",
          "type": "address"
        },
        {
          "internalType": "address",
          "name": "to",
          "type": "address"
        },
        {
          "internalType": "uint256",
          "name": "tokenId",
          "type": "uint256"
        }
      ],
      "name": "safeTransferFrom",
      "outputs": [],
      "stateMutability": "nonpayable",
      "type": "function"
    },
    {
      "inputs": [
        {
          "internalType": "address",
          "name": "from",
          "type": "address"
        },
        {
          "internalType": "address",
          "name": "to",
          "type": "address"
        },
        {
          "internalType": "uint256",
          "name": "tokenId",
          "type": "uint256"
        },
        {
          "internalType": "bytes",
          "name": "data",
          "type": "bytes"
        }
      ],
      "name": "safeTransferFrom",
      "outputs": [],
      "stateMutability": "nonpayable",
      "type": "function"
    },
    {
      "inputs": [
        {
          "internalType": "address",
          "name": "operator",
          "type": "address"
        },
        {
          "internalType": "bool",
          "name": "approved",
          "type": "bool"
        }
      ],
      "name": "setApprovalForAll",
      "outputs": [],
      "stateMutability": "nonpayable",
      "type": "function"
    },
    {
      "inputs": [
        {
          "internalType": "bytes4",
          "name": "interfaceId",
          "type": "bytes4"
        }
      ],
      "name": "supportsInterface",
      "outputs": [
        {
          "internalType": "bool",
          "name": "",
          "type": "bool"
        }
      ],
      "stateMutability": "view",
      "type": "function"
    },
    {
      "inputs": [],
      "name": "symbol",
      "outputs": [
        {
          "internalType": "string",
          "name": "",
          "type": "string"
        }
      ],
      "stateMutability": "view",
      "type": "function"
    },
    {
      "inputs": [
        {
          "internalType": "uint256",
          "name": "tokenId",
          "type": "uint256"
        }
      ],
      "name": "tokenURI",
      "outputs": [
        {
          "internalType": "string",
          "name": "",
          "type": "string"
        }
      ],
      "stateMutability": "view",
      "type": "function"
    },
    {
      "inputs": [
        {
          "internalType": "address",
          "name": "from",
          "type": "address"
        },
        {
          "internalType": "address",
          "name": "to",
          "type": "address"
        },
        {
          "internalType": "uint256",
          "name": "tokenId",
          "type": "uint256"
        }
      ],
      "name": "transferFrom",
      "outputs": [],
      "stateMutability": "nonpayable",
      "type": "function"
    },
    {
      "inputs": [
        {
          "internalType": "uint256",
          "name": "_listingPrice",
          "type": "uint256"
        }
      ],
      "name": "updateListingPrice",
      "outputs": [],
      "stateMutability": "payable",
      "type": "function"
    }
  ],
  "bytecode": "0x60806040526658d15e176280006009553480156200001c57600080fd5b506040518060400160405280601081526020017f4d657461766572736520546f6b656e73000000000000000000000000000000008152506040518060400160405280600481526020017f4d4554540000000000000000000000000000000000000000000000000000000081525081600090816200009a919062000370565b508060019081620000ac919062000370565b50505033600a60006101000a81548173ffffffffffffffffffffffffffffffffffffffff021916908373ffffffffffffffffffffffffffffffffffffffff16021790555062000457565b600081519050919050565b7f4e487b7100000000000000000000000000000000000000000000000000000000600052604160045260246000fd5b7f4e487b7100000000000000000000000000000000000000000000000000000000600052602260045260246000fd5b600060028204905060018216806200017857607f821691505b6020821081036200018e576200018d62000130565b5b50919050565b60008190508160005260206000209050919050565b60006020601f8301049050919050565b600082821b905092915050565b600060088302620001f87fffffffffffffffffffffffffffffffffffffffffffffffffffffffffffffffff82620001b9565b620002048683620001b9565b95508019841693508086168417925050509392505050565b6000819050919050565b6000819050919050565b6000620002516200024b62000245846200021c565b62000226565b6200021c565b9050919050565b6000819050919050565b6200026d8362000230565b620002856200027c8262000258565b848454620001c6565b825550505050565b600090565b6200029c6200028d565b620002a981848462000262565b505050565b5b81811015620002d157620002c560008262000292565b600181019050620002af565b5050565b601f8211156200032057620002ea8162000194565b620002f584620001a9565b8101602085101562000305578190505b6200031d6200031485620001a9565b830182620002ae565b50505b505050565b600082821c905092915050565b6000620003456000198460080262000325565b1980831691505092915050565b600062000360838362000332565b9150826002028217905092915050565b6200037b82620000f6565b67ffffffffffffffff81111562000397576200039662000101565b5b620003a382546200015f565b620003b0828285620002d5565b600060209050601f831160018114620003e85760008415620003d3578287015190505b620003df858262000352565b8655506200044f565b601f198416620003f88662000194565b60005b828110156200042257848901518255600182019150602085019450602081019050620003fb565b868310156200044257848901516200043e601f89168262000332565b8355505b6001600288020188555050505b505050505050565b6142d380620004676000396000f3fe60806040526004361061012a5760003560e01c806370a08231116100ab578063b88d4fde1161006f578063b88d4fde146103ea578063be9af53614610413578063c87b56dd1461042f578063e0391b091461046c578063e219fc7514610497578063e985e9c5146104b35761012a565b806370a082311461030d57806372b3b6201461034a57806395d89b411461037a578063a22cb465146103a5578063ae677aa3146103ce5761012a565b806312e85585116100f257806312e8558514610228578063202e37401461025357806323b872dd1461027e57806342842e0e146102a75780636352211e146102d05761012a565b806301ffc9a71461012f57806306fdde031461016c578063081812fc14610197578063095ea7b3146101d45780630f08efe0146101fd575b600080fd5b34801561013b57600080fd5b5061015660048036038101906101519190612b05565b6104f0565b6040516101639190612b4d565b60405180910390f35b34801561017857600080fd5b50610181610551565b60405161018e9190612bf8565b60405180910390f35b3480156101a357600080fd5b506101be60048036038101906101b99190612c50565b6105e3565b6040516101cb9190612cbe565b60405180910390f35b3480156101e057600080fd5b506101fb60048036038101906101f69190612d05565b610629565b005b34801561020957600080fd5b50610212610740565b60405161021f9190612e9b565b60405180910390f35b34801561023457600080fd5b5061023d6109a8565b60405161024a9190612ecc565b60405180910390f35b34801561025f57600080fd5b506102686109b2565b6040516102759190612e9b565b60405180910390f35b34801561028a57600080fd5b506102a560048036038101906102a09190612ee7565b610c9e565b005b3480156102b357600080fd5b506102ce60048036038101906102c99190612ee7565b610cfe565b005b3480156102dc57600080fd5b506102f760048036038101906102f29190612c50565b610d1e565b6040516103049190612cbe565b60405180910390f35b34801561031957600080fd5b50610334600480360381019061032f9190612f3a565b610da4565b6040516103419190612ecc565b60405180910390f35b610364600480360381019061035f919061309c565b610e5b565b6040516103719190612ecc565b60405180910390f35b34801561038657600080fd5b5061038f610e9d565b60405161039c9190612bf8565b60405180910390f35b3480156103b157600080fd5b506103cc60048036038101906103c79190613124565b610f2f565b005b6103e860048036038101906103e39190612c50565b610f45565b005b3480156103f657600080fd5b50610411600480360381019061040c9190613205565b61106f565b005b61042d60048036038101906104289190612c50565b6110d1565b005b34801561043b57600080fd5b5061045660048036038101906104519190612c50565b611309565b6040516104639190612bf8565b60405180910390f35b34801561047857600080fd5b5061048161141b565b60405161048e9190612e9b565b60405180910390f35b6104b160048036038101906104ac9190613288565b6115ed565b005b3480156104bf57600080fd5b506104da60048036038101906104d591906132c8565b6117e2565b6040516104e79190612b4d565b60405180910390f35b6000634906490660e01b7bffffffffffffffffffffffffffffffffffffffffffffffffffffffff1916827bffffffffffffffffffffffffffffffffffffffffffffffffffffffff1916148061054a575061054982611876565b5b9050919050565b60606000805461056090613337565b80601f016020809104026020016040519081016040528092919081815260200182805461058c90613337565b80156105d95780601f106105ae576101008083540402835291602001916105d9565b820191906000526020600020905b8154815290600101906020018083116105bc57829003601f168201915b5050505050905090565b60006105ee82611958565b6004600083815260200190815260200160002060009054906101000a900473ffffffffffffffffffffffffffffffffffffffff169050919050565b600061063482610d1e565b90508073ffffffffffffffffffffffffffffffffffffffff168373ffffffffffffffffffffffffffffffffffffffff16036106a4576040517f08c379a000000000000000000000000000000000000000000000000000000000815260040161069b906133da565b60405180910390fd5b8073ffffffffffffffffffffffffffffffffffffffff166106c36119a3565b73ffffffffffffffffffffffffffffffffffffffff1614806106f257506106f1816106ec6119a3565b6117e2565b5b610731576040517f08c379a00000000000000000000000000000000000000000000000000000000081526004016107289061346c565b60405180910390fd5b61073b83836119ab565b505050565b6060600061074e6007611a64565b9050600061075c6008611a64565b6107666007611a64565b61077091906134bb565b90506000808267ffffffffffffffff81111561078f5761078e612f71565b5b6040519080825280602002602001820160405280156107c857816020015b6107b5612a3c565b8152602001906001900390816107ad5790505b50905060005b8481101561099d573073ffffffffffffffffffffffffffffffffffffffff16600b60006001846107fe91906134ef565b815260200190815260200160002060020160009054906101000a900473ffffffffffffffffffffffffffffffffffffffff1673ffffffffffffffffffffffffffffffffffffffff160361098a57600060018261085a91906134ef565b90506000600b60008381526020019081526020016000209050806040518060a0016040529081600082015481526020016001820160009054906101000a900473ffffffffffffffffffffffffffffffffffffffff1673ffffffffffffffffffffffffffffffffffffffff1673ffffffffffffffffffffffffffffffffffffffff1681526020016002820160009054906101000a900473ffffffffffffffffffffffffffffffffffffffff1673ffffffffffffffffffffffffffffffffffffffff1673ffffffffffffffffffffffffffffffffffffffff168152602001600382015481526020016004820160009054906101000a900460ff16151515158152505084868151811061096d5761096c613523565b5b602002602001018190525060018561098591906134ef565b945050505b808061099590613552565b9150506107ce565b508094505050505090565b6000600954905090565b606060006109c06007611a64565b905060008060005b83811015610a68573373ffffffffffffffffffffffffffffffffffffffff16600b60006001846109f891906134ef565b815260200190815260200160002060020160009054906101000a900473ffffffffffffffffffffffffffffffffffffffff1673ffffffffffffffffffffffffffffffffffffffff1603610a5557600183610a5291906134ef565b92505b8080610a6090613552565b9150506109c8565b5060008267ffffffffffffffff811115610a8557610a84612f71565b5b604051908082528060200260200182016040528015610abe57816020015b610aab612a3c565b815260200190600190039081610aa35790505b50905060005b84811015610c93573373ffffffffffffffffffffffffffffffffffffffff16600b6000600184610af491906134ef565b815260200190815260200160002060020160009054906101000a900473ffffffffffffffffffffffffffffffffffffffff1673ffffffffffffffffffffffffffffffffffffffff1603610c80576000600182610b5091906134ef565b90506000600b60008381526020019081526020016000209050806040518060a0016040529081600082015481526020016001820160009054906101000a900473ffffffffffffffffffffffffffffffffffffffff1673ffffffffffffffffffffffffffffffffffffffff1673ffffffffffffffffffffffffffffffffffffffff1681526020016002820160009054906101000a900473ffffffffffffffffffffffffffffffffffffffff1673ffffffffffffffffffffffffffffffffffffffff1673ffffffffffffffffffffffffffffffffffffffff168152602001600382015481526020016004820160009054906101000a900460ff161515151581525050848681518110610c6357610c62613523565b5b6020026020010181905250600185610c7b91906134ef565b945050505b8080610c8b90613552565b915050610ac4565b508094505050505090565b610caf610ca96119a3565b82611a72565b610cee576040517f08c379a0000000000000000000000000000000000000000000000000000000008152600401610ce59061360c565b60405180910390fd5b610cf9838383611b07565b505050565b610d198383836040518060200160405280600081525061106f565b505050565b600080610d2a83611e00565b9050600073ffffffffffffffffffffffffffffffffffffffff168173ffffffffffffffffffffffffffffffffffffffff1603610d9b576040517f08c379a0000000000000000000000000000000000000000000000000000000008152600401610d9290613678565b60405180910390fd5b80915050919050565b60008073ffffffffffffffffffffffffffffffffffffffff168273ffffffffffffffffffffffffffffffffffffffff1603610e14576040517f08c379a0000000000000000000000000000000000000000000000000000000008152600401610e0b9061370a565b60405180910390fd5b600360008373ffffffffffffffffffffffffffffffffffffffff1673ffffffffffffffffffffffffffffffffffffffff168152602001908152602001600020549050919050565b6000610e676007611e3d565b6000610e736007611a64565b9050610e7f3382611e53565b610e898185612070565b610e938184612114565b8091505092915050565b606060018054610eac90613337565b80601f0160208091040260200160405190810160405280929190818152602001828054610ed890613337565b8015610f255780601f10610efa57610100808354040283529160200191610f25565b820191906000526020600020905b815481529060010190602001808311610f0857829003601f168201915b5050505050905090565b610f41610f3a6119a3565b8383612317565b5050565b600a60009054906101000a900473ffffffffffffffffffffffffffffffffffffffff1673ffffffffffffffffffffffffffffffffffffffff163373ffffffffffffffffffffffffffffffffffffffff1614610fd5576040517f08c379a0000000000000000000000000000000000000000000000000000000008152600401610fcc9061379c565b60405180910390fd5b3373ffffffffffffffffffffffffffffffffffffffff16600a60009054906101000a900473ffffffffffffffffffffffffffffffffffffffff1673ffffffffffffffffffffffffffffffffffffffff1614611065576040517f08c379a000000000000000000000000000000000000000000000000000000000815260040161105c9061382e565b60405180910390fd5b8060098190555050565b61108061107a6119a3565b83611a72565b6110bf576040517f08c379a00000000000000000000000000000000000000000000000000000000081526004016110b69061360c565b60405180910390fd5b6110cb84848484612483565b50505050565b6000600b600083815260200190815260200160002060030154905080341461112e576040517f08c379a0000000000000000000000000000000000000000000000000000000008152600401611125906138c0565b60405180910390fd5b33600b600084815260200190815260200160002060020160006101000a81548173ffffffffffffffffffffffffffffffffffffffff021916908373ffffffffffffffffffffffffffffffffffffffff1602179055506001600b600084815260200190815260200160002060040160006101000a81548160ff0219169083151502179055506000600b600084815260200190815260200160002060010160006101000a81548173ffffffffffffffffffffffffffffffffffffffff021916908373ffffffffffffffffffffffffffffffffffffffff1602179055506112126008611e3d565b61121d303384611b07565b600a60009054906101000a900473ffffffffffffffffffffffffffffffffffffffff1673ffffffffffffffffffffffffffffffffffffffff166108fc6009549081150290604051600060405180830381858888f19350505050158015611287573d6000803e3d6000fd5b50600b600083815260200190815260200160002060010160009054906101000a900473ffffffffffffffffffffffffffffffffffffffff1673ffffffffffffffffffffffffffffffffffffffff166108fc349081150290604051600060405180830381858888f19350505050158015611304573d6000803e3d6000fd5b505050565b606061131482611958565b600060066000848152602001908152602001600020805461133490613337565b80601f016020809104026020016040519081016040528092919081815260200182805461136090613337565b80156113ad5780601f10611382576101008083540402835291602001916113ad565b820191906000526020600020905b81548152906001019060200180831161139057829003601f168201915b5050505050905060006113be6124df565b905060008151036113d3578192505050611416565b6000825111156114085780826040516020016113f092919061391c565b60405160208183030381529060405292505050611416565b611411846124f6565b925050505b919050565b606060006114296007611a64565b905060008167ffffffffffffffff81111561144757611446612f71565b5b60405190808252806020026020018201604052801561148057816020015b61146d612a3c565b8152602001906001900390816114655790505b50905060008080600090505b848110156115e2576001816114a191906134ef565b91506000600b60008481526020019081526020016000209050806040518060a0016040529081600082015481526020016001820160009054906101000a900473ffffffffffffffffffffffffffffffffffffffff1673ffffffffffffffffffffffffffffffffffffffff1673ffffffffffffffffffffffffffffffffffffffff1681526020016002820160009054906101000a900473ffffffffffffffffffffffffffffffffffffffff1673ffffffffffffffffffffffffffffffffffffffff1673ffffffffffffffffffffffffffffffffffffffff168152602001600382015481526020016004820160009054906101000a900460ff1615151515815250508585815181106115b4576115b3613523565b5b60200260200101819052506001846115cc91906134ef565b93505080806115da90613552565b91505061148c565b508294505050505090565b3373ffffffffffffffffffffffffffffffffffffffff16600b600084815260200190815260200160002060020160009054906101000a900473ffffffffffffffffffffffffffffffffffffffff1673ffffffffffffffffffffffffffffffffffffffff1614611691576040517f08c379a0000000000000000000000000000000000000000000000000000000008152600401611688906139b2565b60405180910390fd5b60095434146116d5576040517f08c379a00000000000000000000000000000000000000000000000000000000081526004016116cc90613a44565b60405180910390fd5b6000600b600084815260200190815260200160002060040160006101000a81548160ff02191690831515021790555080600b60008481526020019081526020016000206003018190555033600b600084815260200190815260200160002060010160006101000a81548173ffffffffffffffffffffffffffffffffffffffff021916908373ffffffffffffffffffffffffffffffffffffffff16021790555030600b600084815260200190815260200160002060020160006101000a81548173ffffffffffffffffffffffffffffffffffffffff021916908373ffffffffffffffffffffffffffffffffffffffff1602179055506117d3600861255e565b6117de333084611b07565b5050565b6000600560008473ffffffffffffffffffffffffffffffffffffffff1673ffffffffffffffffffffffffffffffffffffffff16815260200190815260200160002060008373ffffffffffffffffffffffffffffffffffffffff1673ffffffffffffffffffffffffffffffffffffffff16815260200190815260200160002060009054906101000a900460ff16905092915050565b60007f80ac58cd000000000000000000000000000000000000000000000000000000007bffffffffffffffffffffffffffffffffffffffffffffffffffffffff1916827bffffffffffffffffffffffffffffffffffffffffffffffffffffffff1916148061194157507f5b5e139f000000000000000000000000000000000000000000000000000000007bffffffffffffffffffffffffffffffffffffffffffffffffffffffff1916827bffffffffffffffffffffffffffffffffffffffffffffffffffffffff1916145b806119515750611950826125ba565b5b9050919050565b61196181612624565b6119a0576040517f08c379a000000000000000000000000000000000000000000000000000000000815260040161199790613678565b60405180910390fd5b50565b600033905090565b816004600083815260200190815260200160002060006101000a81548173ffffffffffffffffffffffffffffffffffffffff021916908373ffffffffffffffffffffffffffffffffffffffff160217905550808273ffffffffffffffffffffffffffffffffffffffff16611a1e83610d1e565b73ffffffffffffffffffffffffffffffffffffffff167f8c5be1e5ebec7d5bd14f71427d1e84f3dd0314c0f7b2291e5b200ac8c7c3b92560405160405180910390a45050565b600081600001549050919050565b600080611a7e83610d1e565b90508073ffffffffffffffffffffffffffffffffffffffff168473ffffffffffffffffffffffffffffffffffffffff161480611ac05750611abf81856117e2565b5b80611afe57508373ffffffffffffffffffffffffffffffffffffffff16611ae6846105e3565b73ffffffffffffffffffffffffffffffffffffffff16145b91505092915050565b8273ffffffffffffffffffffffffffffffffffffffff16611b2782610d1e565b73ffffffffffffffffffffffffffffffffffffffff1614611b7d576040517f08c379a0000000000000000000000000000000000000000000000000000000008152600401611b7490613ad6565b60405180910390fd5b600073ffffffffffffffffffffffffffffffffffffffff168273ffffffffffffffffffffffffffffffffffffffff1603611bec576040517f08c379a0000000000000000000000000000000000000000000000000000000008152600401611be390613b68565b60405180910390fd5b611bf98383836001612665565b8273ffffffffffffffffffffffffffffffffffffffff16611c1982610d1e565b73ffffffffffffffffffffffffffffffffffffffff1614611c6f576040517f08c379a0000000000000000000000000000000000000000000000000000000008152600401611c6690613ad6565b60405180910390fd5b6004600082815260200190815260200160002060006101000a81549073ffffffffffffffffffffffffffffffffffffffff02191690556001600360008573ffffffffffffffffffffffffffffffffffffffff1673ffffffffffffffffffffffffffffffffffffffff168152602001908152602001600020600082825403925050819055506001600360008473ffffffffffffffffffffffffffffffffffffffff1673ffffffffffffffffffffffffffffffffffffffff16815260200190815260200160002060008282540192505081905550816002600083815260200190815260200160002060006101000a81548173ffffffffffffffffffffffffffffffffffffffff021916908373ffffffffffffffffffffffffffffffffffffffff160217905550808273ffffffffffffffffffffffffffffffffffffffff168473ffffffffffffffffffffffffffffffffffffffff167fddf252ad1be2c89b69c2b068fc378daa952ba7f163c4a11628f55a4df523b3ef60405160405180910390a4611dfb838383600161266b565b505050565b60006002600083815260200190815260200160002060009054906101000a900473ffffffffffffffffffffffffffffffffffffffff169050919050565b6001816000016000828254019250508190555050565b600073ffffffffffffffffffffffffffffffffffffffff168273ffffffffffffffffffffffffffffffffffffffff1603611ec2576040517f08c379a0000000000000000000000000000000000000000000000000000000008152600401611eb990613bd4565b60405180910390fd5b611ecb81612624565b15611f0b576040517f08c379a0000000000000000000000000000000000000000000000000000000008152600401611f0290613c40565b60405180910390fd5b611f19600083836001612665565b611f2281612624565b15611f62576040517f08c379a0000000000000000000000000000000000000000000000000000000008152600401611f5990613c40565b60405180910390fd5b6001600360008473ffffffffffffffffffffffffffffffffffffffff1673ffffffffffffffffffffffffffffffffffffffff16815260200190815260200160002060008282540192505081905550816002600083815260200190815260200160002060006101000a81548173ffffffffffffffffffffffffffffffffffffffff021916908373ffffffffffffffffffffffffffffffffffffffff160217905550808273ffffffffffffffffffffffffffffffffffffffff16600073ffffffffffffffffffffffffffffffffffffffff167fddf252ad1be2c89b69c2b068fc378daa952ba7f163c4a11628f55a4df523b3ef60405160405180910390a461206c60008383600161266b565b5050565b61207982612624565b6120b8576040517f08c379a00000000000000000000000000000000000000000000000000000000081526004016120af90613cd2565b60405180910390fd5b806006600084815260200190815260200160002090816120d89190613e9e565b507ff8e1a15aba9398e019f0b49df1a4fde98ee17ae345cb5f6b5e2c27f5033e8ce7826040516121089190612ecc565b60405180910390a15050565b60008111612157576040517f08c379a000000000000000000000000000000000000000000000000000000000815260040161214e90613fbc565b60405180910390fd5b600954341461219b576040517f08c379a000000000000000000000000000000000000000000000000000000000815260040161219290613a44565b60405180910390fd5b6040518060a001604052808381526020013373ffffffffffffffffffffffffffffffffffffffff1681526020013073ffffffffffffffffffffffffffffffffffffffff16815260200182815260200160001515815250600b60008481526020019081526020016000206000820151816000015560208201518160010160006101000a81548173ffffffffffffffffffffffffffffffffffffffff021916908373ffffffffffffffffffffffffffffffffffffffff16021790555060408201518160020160006101000a81548173ffffffffffffffffffffffffffffffffffffffff021916908373ffffffffffffffffffffffffffffffffffffffff1602179055506060820151816003015560808201518160040160006101000a81548160ff0219169083151502179055509050506122d4333084611b07565b817fb640004f1d14576d0c209e240cad0410e0d8c0c33a09375861fbadae2588a98d333084600060405161230b9493929190613fdc565b60405180910390a25050565b8173ffffffffffffffffffffffffffffffffffffffff168373ffffffffffffffffffffffffffffffffffffffff1603612385576040517f08c379a000000000000000000000000000000000000000000000000000000000815260040161237c9061406d565b60405180910390fd5b80600560008573ffffffffffffffffffffffffffffffffffffffff1673ffffffffffffffffffffffffffffffffffffffff16815260200190815260200160002060008473ffffffffffffffffffffffffffffffffffffffff1673ffffffffffffffffffffffffffffffffffffffff16815260200190815260200160002060006101000a81548160ff0219169083151502179055508173ffffffffffffffffffffffffffffffffffffffff168373ffffffffffffffffffffffffffffffffffffffff167f17307eab39ab6107e8899845ad3d59bd9653f200f220920489ca2b5937696c31836040516124769190612b4d565b60405180910390a3505050565b61248e848484611b07565b61249a84848484612671565b6124d9576040517f08c379a00000000000000000000000000000000000000000000000000000000081526004016124d0906140ff565b60405180910390fd5b50505050565b606060405180602001604052806000815250905090565b606061250182611958565b600061250b6124df565b9050600081511161252b5760405180602001604052806000815250612556565b80612535846127f8565b60405160200161254692919061391c565b6040516020818303038152906040525b915050919050565b600081600001549050600081116125aa576040517f08c379a00000000000000000000000000000000000000000000000000000000081526004016125a19061416b565b60405180910390fd5b6001810382600001819055505050565b60007f01ffc9a7000000000000000000000000000000000000000000000000000000007bffffffffffffffffffffffffffffffffffffffffffffffffffffffff1916827bffffffffffffffffffffffffffffffffffffffffffffffffffffffff1916149050919050565b60008073ffffffffffffffffffffffffffffffffffffffff1661264683611e00565b73ffffffffffffffffffffffffffffffffffffffff1614159050919050565b50505050565b50505050565b60006126928473ffffffffffffffffffffffffffffffffffffffff166128c6565b156127eb578373ffffffffffffffffffffffffffffffffffffffff1663150b7a026126bb6119a3565b8786866040518563ffffffff1660e01b81526004016126dd94939291906141e0565b6020604051808303816000875af192505050801561271957506040513d601f19601f820116820180604052508101906127169190614241565b60015b61279b573d8060008114612749576040519150601f19603f3d011682016040523d82523d6000602084013e61274e565b606091505b506000815103612793576040517f08c379a000000000000000000000000000000000000000000000000000000000815260040161278a906140ff565b60405180910390fd5b805181602001fd5b63150b7a0260e01b7bffffffffffffffffffffffffffffffffffffffffffffffffffffffff1916817bffffffffffffffffffffffffffffffffffffffffffffffffffffffff1916149150506127f0565b600190505b949350505050565b606060006001612807846128e9565b01905060008167ffffffffffffffff81111561282657612825612f71565b5b6040519080825280601f01601f1916602001820160405280156128585781602001600182028036833780820191505090505b509050600082602001820190505b6001156128bb578080600190039150507f3031323334353637383961626364656600000000000000000000000000000000600a86061a8153600a85816128af576128ae61426e565b5b04945060008503612866575b819350505050919050565b6000808273ffffffffffffffffffffffffffffffffffffffff163b119050919050565b600080600090507a184f03e93ff9f4daa797ed6e38ed64bf6a1f0100000000000000008310612947577a184f03e93ff9f4daa797ed6e38ed64bf6a1f010000000000000000838161293d5761293c61426e565b5b0492506040810190505b6d04ee2d6d415b85acef81000000008310612984576d04ee2d6d415b85acef8100000000838161297a5761297961426e565b5b0492506020810190505b662386f26fc1000083106129b357662386f26fc1000083816129a9576129a861426e565b5b0492506010810190505b6305f5e10083106129dc576305f5e10083816129d2576129d161426e565b5b0492506008810190505b6127108310612a015761271083816129f7576129f661426e565b5b0492506004810190505b60648310612a245760648381612a1a57612a1961426e565b5b0492506002810190505b600a8310612a33576001810190505b80915050919050565b6040518060a0016040528060008152602001600073ffffffffffffffffffffffffffffffffffffffff168152602001600073ffffffffffffffffffffffffffffffffffffffff168152602001600081526020016000151581525090565b6000604051905090565b600080fd5b600080fd5b60007fffffffff0000000000000000000000000000000000000000000000000000000082169050919050565b612ae281612aad565b8114612aed57600080fd5b50565b600081359050612aff81612ad9565b92915050565b600060208284031215612b1b57612b1a612aa3565b5b6000612b2984828501612af0565b91505092915050565b60008115159050919050565b612b4781612b32565b82525050565b6000602082019050612b626000830184612b3e565b92915050565b600081519050919050565b600082825260208201905092915050565b60005b83811015612ba2578082015181840152602081019050612b87565b60008484015250505050565b6000601f19601f8301169050919050565b6000612bca82612b68565b612bd48185612b73565b9350612be4818560208601612b84565b612bed81612bae565b840191505092915050565b60006020820190508181036000830152612c128184612bbf565b905092915050565b6000819050919050565b612c2d81612c1a565b8114612c3857600080fd5b50565b600081359050612c4a81612c24565b92915050565b600060208284031215612c6657612c65612aa3565b5b6000612c7484828501612c3b565b91505092915050565b600073ffffffffffffffffffffffffffffffffffffffff82169050919050565b6000612ca882612c7d565b9050919050565b612cb881612c9d565b82525050565b6000602082019050612cd36000830184612caf565b92915050565b612ce281612c9d565b8114612ced57600080fd5b50565b600081359050612cff81612cd9565b92915050565b60008060408385031215612d1c57612d1b612aa3565b5b6000612d2a85828601612cf0565b9250506020612d3b85828601612c3b565b9150509250929050565b600081519050919050565b600082825260208201905092915050565b6000819050602082019050919050565b612d7a81612c1a565b82525050565b6000612d8b82612c7d565b9050919050565b612d9b81612d80565b82525050565b612daa81612b32565b82525050565b60a082016000820151612dc66000850182612d71565b506020820151612dd96020850182612d92565b506040820151612dec6040850182612d92565b506060820151612dff6060850182612d71565b506080820151612e126080850182612da1565b50505050565b6000612e248383612db0565b60a08301905092915050565b6000602082019050919050565b6000612e4882612d45565b612e528185612d50565b9350612e5d83612d61565b8060005b83811015612e8e578151612e758882612e18565b9750612e8083612e30565b925050600181019050612e61565b5085935050505092915050565b60006020820190508181036000830152612eb58184612e3d565b905092915050565b612ec681612c1a565b82525050565b6000602082019050612ee16000830184612ebd565b92915050565b600080600060608486031215612f0057612eff612aa3565b5b6000612f0e86828701612cf0565b9350506020612f1f86828701612cf0565b9250506040612f3086828701612c3b565b9150509250925092565b600060208284031215612f5057612f4f612aa3565b5b6000612f5e84828501612cf0565b91505092915050565b600080fd5b600080fd5b7f4e487b7100000000000000000000000000000000000000000000000000000000600052604160045260246000fd5b612fa982612bae565b810181811067ffffffffffffffff82111715612fc857612fc7612f71565b5b80604052505050565b6000612fdb612a99565b9050612fe78282612fa0565b919050565b600067ffffffffffffffff82111561300757613006612f71565b5b61301082612bae565b9050602081019050919050565b82818337600083830152505050565b600061303f61303a84612fec565b612fd1565b90508281526020810184848401111561305b5761305a612f6c565b5b61306684828561301d565b509392505050565b600082601f83011261308357613082612f67565b5b813561309384826020860161302c565b91505092915050565b600080604083850312156130b3576130b2612aa3565b5b600083013567ffffffffffffffff8111156130d1576130d0612aa8565b5b6130dd8582860161306e565b92505060206130ee85828601612c3b565b9150509250929050565b61310181612b32565b811461310c57600080fd5b50565b60008135905061311e816130f8565b92915050565b6000806040838503121561313b5761313a612aa3565b5b600061314985828601612cf0565b925050602061315a8582860161310f565b9150509250929050565b600067ffffffffffffffff82111561317f5761317e612f71565b5b61318882612bae565b9050602081019050919050565b60006131a86131a384613164565b612fd1565b9050828152602081018484840111156131c4576131c3612f6c565b5b6131cf84828561301d565b509392505050565b600082601f8301126131ec576131eb612f67565b5b81356131fc848260208601613195565b91505092915050565b6000806000806080858703121561321f5761321e612aa3565b5b600061322d87828801612cf0565b945050602061323e87828801612cf0565b935050604061324f87828801612c3b565b925050606085013567ffffffffffffffff8111156132705761326f612aa8565b5b61327c878288016131d7565b91505092959194509250565b6000806040838503121561329f5761329e612aa3565b5b60006132ad85828601612c3b565b92505060206132be85828601612c3b565b9150509250929050565b600080604083850312156132df576132de612aa3565b5b60006132ed85828601612cf0565b92505060206132fe85828601612cf0565b9150509250929050565b7f4e487b7100000000000000000000000000000000000000000000000000000000600052602260045260246000fd5b6000600282049050600182168061334f57607f821691505b60208210810361336257613361613308565b5b50919050565b7f4552433732313a20617070726f76616c20746f2063757272656e74206f776e6560008201527f7200000000000000000000000000000000000000000000000000000000000000602082015250565b60006133c4602183612b73565b91506133cf82613368565b604082019050919050565b600060208201905081810360008301526133f3816133b7565b9050919050565b7f4552433732313a20617070726f76652063616c6c6572206973206e6f7420746f60008201527f6b656e206f776e6572206f7220617070726f76656420666f7220616c6c000000602082015250565b6000613456603d83612b73565b9150613461826133fa565b604082019050919050565b6000602082019050818103600083015261348581613449565b9050919050565b7f4e487b7100000000000000000000000000000000000000000000000000000000600052601160045260246000fd5b60006134c682612c1a565b91506134d183612c1a565b92508282039050818111156134e9576134e861348c565b5b92915050565b60006134fa82612c1a565b915061350583612c1a565b925082820190508082111561351d5761351c61348c565b5b92915050565b7f4e487b7100000000000000000000000000000000000000000000000000000000600052603260045260246000fd5b600061355d82612c1a565b91507fffffffffffffffffffffffffffffffffffffffffffffffffffffffffffffffff820361358f5761358e61348c565b5b600182019050919050565b7f4552433732313a2063616c6c6572206973206e6f7420746f6b656e206f776e6560008201527f72206f7220617070726f76656400000000000000000000000000000000000000602082015250565b60006135f6602d83612b73565b91506136018261359a565b604082019050919050565b60006020820190508181036000830152613625816135e9565b9050919050565b7f4552433732313a20696e76616c696420746f6b656e2049440000000000000000600082015250565b6000613662601883612b73565b915061366d8261362c565b602082019050919050565b6000602082019050818103600083015261369181613655565b9050919050565b7f4552433732313a2061646472657373207a65726f206973206e6f74206120766160008201527f6c6964206f776e65720000000000000000000000000000000000000000000000602082015250565b60006136f4602983612b73565b91506136ff82613698565b604082019050919050565b60006020820190508181036000830152613723816136e7565b9050919050565b7f6f6e6c79206f776e6572206f6620746865206d61726b6574706c61636520636160008201527f6e206368616e676520746865206c697374696e67207072696365000000000000602082015250565b6000613786603a83612b73565b91506137918261372a565b604082019050919050565b600060208201905081810360008301526137b581613779565b9050919050565b7f4f6e6c79206d61726b6574706c616365206f776e65722063616e20757064617460008201527f65206c697374696e672070726963652e00000000000000000000000000000000602082015250565b6000613818603083612b73565b9150613823826137bc565b604082019050919050565b600060208201905081810360008301526138478161380b565b9050919050565b7f506c65617365207375626d6974207468652061736b696e67207072696365206960008201527f6e206f7264657220746f20636f6d706c65746520746865207075726368617365602082015250565b60006138aa604083612b73565b91506138b58261384e565b604082019050919050565b600060208201905081810360008301526138d98161389d565b9050919050565b600081905092915050565b60006138f682612b68565b61390081856138e0565b9350613910818560208601612b84565b80840191505092915050565b600061392882856138eb565b915061393482846138eb565b91508190509392505050565b7f4f6e6c79206974656d206f776e65722063616e20706572666f726d207468697360008201527f206f7065726174696f6e00000000000000000000000000000000000000000000602082015250565b600061399c602a83612b73565b91506139a782613940565b604082019050919050565b600060208201905081810360008301526139cb8161398f565b9050919050565b7f5072696365206d75737420626520657175616c20746f206c697374696e67207060008201527f7269636500000000000000000000000000000000000000000000000000000000602082015250565b6000613a2e602483612b73565b9150613a39826139d2565b604082019050919050565b60006020820190508181036000830152613a5d81613a21565b9050919050565b7f4552433732313a207472616e736665722066726f6d20696e636f72726563742060008201527f6f776e6572000000000000000000000000000000000000000000000000000000602082015250565b6000613ac0602583612b73565b9150613acb82613a64565b604082019050919050565b60006020820190508181036000830152613aef81613ab3565b9050919050565b7f4552433732313a207472616e7366657220746f20746865207a65726f2061646460008201527f7265737300000000000000000000000000000000000000000000000000000000602082015250565b6000613b52602483612b73565b9150613b5d82613af6565b604082019050919050565b60006020820190508181036000830152613b8181613b45565b9050919050565b7f4552433732313a206d696e7420746f20746865207a65726f2061646472657373600082015250565b6000613bbe602083612b73565b9150613bc982613b88565b602082019050919050565b60006020820190508181036000830152613bed81613bb1565b9050919050565b7f4552433732313a20746f6b656e20616c7265616479206d696e74656400000000600082015250565b6000613c2a601c83612b73565b9150613c3582613bf4565b602082019050919050565b60006020820190508181036000830152613c5981613c1d565b9050919050565b7f45524337323155524953746f726167653a2055524920736574206f66206e6f6e60008201527f6578697374656e7420746f6b656e000000000000000000000000000000000000602082015250565b6000613cbc602e83612b73565b9150613cc782613c60565b604082019050919050565b60006020820190508181036000830152613ceb81613caf565b9050919050565b60008190508160005260206000209050919050565b60006020601f8301049050919050565b600082821b905092915050565b600060088302613d547fffffffffffffffffffffffffffffffffffffffffffffffffffffffffffffffff82613d17565b613d5e8683613d17565b95508019841693508086168417925050509392505050565b6000819050919050565b6000613d9b613d96613d9184612c1a565b613d76565b612c1a565b9050919050565b6000819050919050565b613db583613d80565b613dc9613dc182613da2565b848454613d24565b825550505050565b600090565b613dde613dd1565b613de9818484613dac565b505050565b5b81811015613e0d57613e02600082613dd6565b600181019050613def565b5050565b601f821115613e5257613e2381613cf2565b613e2c84613d07565b81016020851015613e3b578190505b613e4f613e4785613d07565b830182613dee565b50505b505050565b600082821c905092915050565b6000613e7560001984600802613e57565b1980831691505092915050565b6000613e8e8383613e64565b9150826002028217905092915050565b613ea782612b68565b67ffffffffffffffff811115613ec057613ebf612f71565b5b613eca8254613337565b613ed5828285613e11565b600060209050601f831160018114613f085760008415613ef6578287015190505b613f008582613e82565b865550613f68565b601f198416613f1686613cf2565b60005b82811015613f3e57848901518255600182019150602085019450602081019050613f19565b86831015613f5b5784890151613f57601f891682613e64565b8355505b6001600288020188555050505b505050505050565b7f5072696365206d757374206265206174206c6561737420312077656900000000600082015250565b6000613fa6601c83612b73565b9150613fb182613f70565b602082019050919050565b60006020820190508181036000830152613fd581613f99565b9050919050565b6000608082019050613ff16000830187612caf565b613ffe6020830186612caf565b61400b6040830185612ebd565b6140186060830184612b3e565b95945050505050565b7f4552433732313a20617070726f766520746f2063616c6c657200000000000000600082015250565b6000614057601983612b73565b915061406282614021565b602082019050919050565b600060208201905081810360008301526140868161404a565b9050919050565b7f4552433732313a207472616e7366657220746f206e6f6e20455243373231526560008201527f63656976657220696d706c656d656e7465720000000000000000000000000000602082015250565b60006140e9603283612b73565b91506140f48261408d565b604082019050919050565b60006020820190508181036000830152614118816140dc565b9050919050565b7f436f756e7465723a2064656372656d656e74206f766572666c6f770000000000600082015250565b6000614155601b83612b73565b91506141608261411f565b602082019050919050565b6000602082019050818103600083015261418481614148565b9050919050565b600081519050919050565b600082825260208201905092915050565b60006141b28261418b565b6141bc8185614196565b93506141cc818560208601612b84565b6141d581612bae565b840191505092915050565b60006080820190506141f56000830187612caf565b6142026020830186612caf565b61420f6040830185612ebd565b818103606083015261422181846141a7565b905095945050505050565b60008151905061423b81612ad9565b92915050565b60006020828403121561425757614256612aa3565b5b60006142658482850161422c565b91505092915050565b7f4e487b7100000000000000000000000000000000000000000000000000000000600052601260045260246000fdfea2646970667358221220c11af96d1638afb8e140dea708656011096e7df694f7588dbcbe3c18ddb5557864736f6c63430008130033",
  "linkReferences": {},
  "deployedLinkReferences": {}
}